{
    "contractName": "TestTokenSale",
    "abi": [
        {
            "inputs": [
                {
                    "internalType": "contract TestToken",
                    "name": "_tokenContract",
                    "type": "address"
                },
                {
                    "internalType": "uint256",
                    "name": "_tokenPrice",
                    "type": "uint256"
                }
            ],
            "stateMutability": "nonpayable",
            "type": "constructor"
        },
        {
            "anonymous": false,
            "inputs": [
                {
                    "indexed": false,
                    "internalType": "address",
                    "name": "_buyer",
                    "type": "address"
                },
                {
                    "indexed": false,
                    "internalType": "uint256",
                    "name": "_amount",
                    "type": "uint256"
                }
            ],
            "name": "Sell",
            "type": "event"
        },
        {
            "inputs": [
                {
                    "internalType": "uint256",
                    "name": "_numberOfTokens",
                    "type": "uint256"
                }
            ],
            "name": "buyTokens",
            "outputs": [],
            "stateMutability": "payable",
            "type": "function"
        },
        {
            "inputs": [],
            "name": "tokenContract",
            "outputs": [
                {
                    "internalType": "contract TestToken",
                    "name": "",
                    "type": "address"
                }
            ],
            "stateMutability": "view",
            "type": "function"
        },
        {
            "inputs": [],
            "name": "tokenPrice",
            "outputs": [
                {
                    "internalType": "uint256",
                    "name": "",
                    "type": "uint256"
                }
            ],
            "stateMutability": "view",
            "type": "function"
        },
        {
            "inputs": [],
            "name": "tokensSold",
            "outputs": [
                {
                    "internalType": "uint256",
                    "name": "",
                    "type": "uint256"
                }
            ],
            "stateMutability": "view",
            "type": "function"
        }
    ],
    "bytecode": "608060405234801561001057600080fd5b506040516101cc3803806101cc83398101604081905261002f91610066565b60008054336001600160a01b031991821617909155600180549091166001600160a01b0393909316929092179091556002556100a0565b6000806040838503121561007957600080fd5b82516001600160a01b038116811461009057600080fd5b6020939093015192949293505050565b61011d806100af6000396000f3fe608060405260043610603a5760003560e01c80633610724e14603f578063518ab2a814605057806355a373d61460775780637ff9b5961460ac575b600080fd5b604e604a36600460cf565b60c0565b005b348015605b57600080fd5b50606460035481565b6040519081526020015b60405180910390f35b348015608257600080fd5b506001546095906001600160a01b031681565b6040516001600160a01b039091168152602001606e565b34801560b757600080fd5b50606460025481565b8047101560cc57600080fd5b50565b60006020828403121560e057600080fd5b503591905056fea264697066735822122072722549b33b7fcc239f485bfbe25343789c157d0f955795e6f338065f2a5c6f64736f6c63430008110033",
    "sourcePath": "d:/Drives/hossamadel23895/Innuva/Crypto_Currency_Coin/contracts/TestTokenSale.sol",
    "compiler": {
        "name": "solc",
        "version": "0.7.1+commit.8df45f5f"
    },
    "functionHashes": {
        "buyTokens(uint256)": "3610724e",
        "tokenContract()": "55a373d6",
        "tokenPrice()": "7ff9b596",
        "tokensSold()": "518ab2a8"
    },
    "gasEstimates": {
        "creation": {
            "codeDepositCost": "57000",
            "executionCost": "infinite",
            "totalCost": "infinite"
        },
        "external": {
            "buyTokens(uint256)": "205",
            "tokenContract()": "2359",
            "tokenPrice()": "2328",
            "tokensSold()": "2284"
        },
        "internal": {
            "multiply(uint256,uint256)": "infinite"
        }
    }
}