{
  "_format": "hh-sol-artifact-1",
  "contractName": "TestTokenSale",
  "sourceName": "contracts/TestTokenSale.sol",
  "abi": [
    {
      "inputs": [
        {
          "internalType": "contract TestToken",
          "name": "_tokenContract",
          "type": "address"
        },
        {
          "internalType": "uint256",
          "name": "_tokenPrice",
          "type": "uint256"
        }
      ],
      "stateMutability": "nonpayable",
      "type": "constructor"
    },
    {
      "anonymous": false,
      "inputs": [
        {
          "indexed": false,
          "internalType": "address",
          "name": "_buyer",
          "type": "address"
        },
        {
          "indexed": false,
          "internalType": "uint256",
          "name": "_amount",
          "type": "uint256"
        }
      ],
      "name": "Sell",
      "type": "event"
    },
    {
      "inputs": [
        {
          "internalType": "uint256",
          "name": "_numberOfTokens",
          "type": "uint256"
        }
      ],
      "name": "buyTokens",
      "outputs": [],
      "stateMutability": "payable",
      "type": "function"
    },
    {
      "inputs": [],
      "name": "tokenContract",
      "outputs": [
        {
          "internalType": "contract TestToken",
          "name": "",
          "type": "address"
        }
      ],
      "stateMutability": "view",
      "type": "function"
    },
    {
      "inputs": [],
      "name": "tokenPrice",
      "outputs": [
        {
          "internalType": "uint256",
          "name": "",
          "type": "uint256"
        }
      ],
      "stateMutability": "view",
      "type": "function"
    },
    {
      "inputs": [],
      "name": "tokensSold",
      "outputs": [
        {
          "internalType": "uint256",
          "name": "",
          "type": "uint256"
        }
      ],
      "stateMutability": "view",
      "type": "function"
    }
  ],
  "bytecode": "0x608060405234801561001057600080fd5b506040516106043803806106048339818101604052810190610032919061016c565b336000806101000a81548173ffffffffffffffffffffffffffffffffffffffff021916908373ffffffffffffffffffffffffffffffffffffffff16021790555081600160006101000a81548173ffffffffffffffffffffffffffffffffffffffff021916908373ffffffffffffffffffffffffffffffffffffffff1602179055508060028190555050506101ac565b600080fd5b600073ffffffffffffffffffffffffffffffffffffffff82169050919050565b60006100f1826100c6565b9050919050565b6000610103826100e6565b9050919050565b610113816100f8565b811461011e57600080fd5b50565b6000815190506101308161010a565b92915050565b6000819050919050565b61014981610136565b811461015457600080fd5b50565b60008151905061016681610140565b92915050565b60008060408385031215610183576101826100c1565b5b600061019185828601610121565b92505060206101a285828601610157565b9150509250929050565b610449806101bb6000396000f3fe60806040526004361061003f5760003560e01c80633610724e14610044578063518ab2a81461006057806355a373d61461008b5780637ff9b596146100b6575b600080fd5b61005e60048036038101906100599190610262565b6100e1565b005b34801561006c57600080fd5b50610075610130565b604051610082919061029e565b60405180910390f35b34801561009757600080fd5b506100a0610136565b6040516100ad9190610338565b60405180910390f35b3480156100c257600080fd5b506100cb61015c565b6040516100d8919061029e565b60405180910390f35b804710156100ee57600080fd5b61012d6040518060400160405280600281526020017f257300000000000000000000000000000000000000000000000000000000000081525047610162565b50565b60035481565b600160009054906101000a900473ffffffffffffffffffffffffffffffffffffffff1681565b60025481565b6101fa82826040516024016101789291906103e3565b6040516020818303038152906040527fb60e72cc000000000000000000000000000000000000000000000000000000007bffffffffffffffffffffffffffffffffffffffffffffffffffffffff19166020820180517bffffffffffffffffffffffffffffffffffffffffffffffffffffffff83818316178352505050506101fe565b5050565b60008151905060006a636f6e736f6c652e6c6f679050602083016000808483855afa5050505050565b600080fd5b6000819050919050565b61023f8161022c565b811461024a57600080fd5b50565b60008135905061025c81610236565b92915050565b60006020828403121561027857610277610227565b5b60006102868482850161024d565b91505092915050565b6102988161022c565b82525050565b60006020820190506102b3600083018461028f565b92915050565b600073ffffffffffffffffffffffffffffffffffffffff82169050919050565b6000819050919050565b60006102fe6102f96102f4846102b9565b6102d9565b6102b9565b9050919050565b6000610310826102e3565b9050919050565b600061032282610305565b9050919050565b61033281610317565b82525050565b600060208201905061034d6000830184610329565b92915050565b600081519050919050565b600082825260208201905092915050565b60005b8381101561038d578082015181840152602081019050610372565b60008484015250505050565b6000601f19601f8301169050919050565b60006103b582610353565b6103bf818561035e565b93506103cf81856020860161036f565b6103d881610399565b840191505092915050565b600060408201905081810360008301526103fd81856103aa565b905061040c602083018461028f565b939250505056fea2646970667358221220279e923e109b4747c04d7d0c5e0bee2af7929f79c8ac1e0d0dbee65e685ffd6564736f6c63430008110033",
  "linkReferences": {},
  "deployedLinkReferences": {}
}